S01200004B6579706164546573742E7372656314
S11300000C942A000C943F000C943F000C943F0085
S11300100C943F000C943F000C943F000C943F0060
S11300200C943F000C943F000C943F000C943F0050
S11300300C943F000C943F000C943F000C943F0040
S11300400C943F000C943F000C943F000C943F0030
S11300500C943F0011241FBECFE5D8E0DEBFCDBF16
S113006010E0A0E6B0E0EEE6FBE002C005900D92E1
S1130070A83CB107D9F70E9417030C94B5050C945A
S11300800000CF92DF92EF92FF920F931F93CF93D2
S1130090DF9304E610E0C0E6D0E00F2EF4E6CF2EA6
S11300A0F0E0DF2EF02DF80161918F0141E082E054
S11300B00E9452037E0140E0699182E00E94520353
S11300C041E0F701608182E00E949304CC15DD05D4
S11300D051F7DF91CF911F910F91FF90EF90DF9037
S11300E0CF9008956F927F928F929F92AF92BF921A
S11300F0CF92DF92EF92FF920F931F93CF93DF93F0
S11301000F2EF4E6EF2EF0E0FF2EF02D08E610E0BF
S1130110E701699141E082E00E94DA03C017D10748
S1130120C1F7C12CD12C4601570140E0F701608191
S113013082E00E94DA03C0E6D0E0612C712C8301D6
S1130140699182E00E945E0481110BC0000F111FAF
S1130150000F111F06591F4FF801E80DF91D80818A
S113016018C0FFEF6F1A7F0A84E06816710439F72C
S1130170EFEFEE1AFE0A41E0F501608182E00E9491
S1130180DA03FFEFCF1ADF0A84E0C816D10459F668
S11301908FE3DF91CF911F910F91FF90EF90DF904C
S11301A0CF90BF90AF909F908F907F906F90089565
S11301B0EF92FF920F931F93CF93DF93E82E40E0CB
S11301C061E084E00E94DA0341E062E084E00E949E
S11301D0DA03C4E0D0E0F12C8701A7010C2E02C0A1
S11301E0559547950A94E2F741706C2F84E00E947C
S11301F0DA032196C830D10579F741E060E084E064
S11302000E94DA0362E070E080E090E00E94AF02B6
S113021040E060E084E00E94DA03C4E0E12CF12CC9
S1130220A8010E2C02C0559547950A94E2F7417037
S11302306C2F84E00E94DA038FEFE81AF80ACF5F8C
S1130240C83071F741E060E084E00E94DA0362E0C4
S113025070E080E090E00E94AF0240E060E084E063
S11302600E94DA03DF91CF911F910F91FF90EF90DD
S11302700895EF92FF920F931F93CF93DF93E82E8D
S113028040E061E084E00E94DA0340E062E084E060
S11302900E94DA03C4E0D0E0F12C8701A7010C2E00
S11302A002C0559547950A94E2F741706C2F84E09B
S11302B00E94DA032196C830D10579F741E060E065
S11302C084E00E94DA0362E070E080E090E00E9443
S11302D0AF0240E060E084E00E94DA03C4E0E12C75
S11302E0F12CA8010E2C02C0559547950A94E2F70B
S11302F041706C2F84E00E94DA038FEFE81AF80A49
S1130300CF5FC83071F741E060E084E00E94DA0317
S113031062E070E080E090E00E94AF0240E060E0C4
S113032084E00E94DA03DF91CF911F910F91FF9037
S1130330EF900895EF92FF920F931F93CF93DF9363
S113034041E062E084E00E94520341E061E084E025
S11303500E94520341E060E084E00E94520361E0A5
S113036084E00E94360362E370E080E090E00E9443
S1130370AF02809168008B7F88608093680082E27E
S11303800E943901809168000E94390161E070E0A7
S113039080E090E00E94AF02809169000E943901E0
S11303A061E070E080E090E00E94AF0281E00E9492
S11303B0390162E070E080E090E00E94AF0286E0E4
S11303C00E94390162E070E080E090E00E94AF0298
S11303D080E40E943901CAE7D0E00F2EFAEBEF2E39
S11303E0F0E0FF2EF02D0AC089910E94D800C017BA
S11303F0D107D1F7E801E016F10621F08E01085F7C
S11304001F4FF2CF80E80E943901DF91CF911F91F5
S11304100F91FF90EF900895813019F0823029F008
S1130420089580E80E943901089580EC0E94390102
S113043008958A3020F4805D0E94D80008950E94B7
S1130440D8000895BF92CF92DF92EF92FF920F935C
S11304501F93CF93DF93EC01611148C0C880D9800A
S1130460EA80FB80C114D104E104F10421F480E0AA
S11304700E94190246C0D0E019E0C12FCD1B6C2F99
S11304808AE00E94F4029B01AC01C701B6010E94FC
S11304902705232B242B252B29F1DA3090F56C2FFB
S11304A08AE00E94F4029B01AC01C701B6010E94DC
S11304B02705B62E072F182FD92F6C2F8AE00E94FC
S11304C0F4029B01AC01C701B6010E942705822FEB
S11304D00E941902C150CB2CD02EE12EFD2ECF3F0D
S11304E0F1F60FC0DF5FDA3041F60BC0613049F43A
S11304F08881882331F021960E9419028991811103
S1130500FBCFDF91CF911F910F91FF90EF90DF9080
S1130510CF90BF900895811106C0809169008D7FAE
S11305208093690005C080916900826080936900AE
S1130530809169000E9439010895811106C080915B
S113054069008E7F8093690005C080916900816095
S113055080936900809169000E94390108958F9207
S11305609F92AF92BF92CF92DF92EF92FF920F933E
S11305709B01AC0160EA76E881E090E00E941705F7
S1130580665679408109910929EB35E749E757E037
S11305900E94540500E20E948105822E932EA42E0F
S11305A0B52EB694A79497948794B694A7949794E9
S11305B0879481149104A104B10461F080E090E077
S11305C0DC0100000196A11DB11D88169906AA063A
S11305D0BB06B9F70F91FF90EF90DF90CF90BF90DB
S11305E0AF909F908F900895CF92DF92EF92FF92F9
S11305F0C82EF62F662391F0E0E061E070E080E021
S113060090E0D12CE12CF12C9B01AC01C701B60187
S11306100E941705EF5FFE13F7CF04C061E070E09E
S113062080E090E0FF90EF90DF90CF9008950E94DB
S113063041000E949A0180E00E948B0280E00E94A7
S11306409D0261E08AEB90E00E9422020E94720007
S1130650C82F82E00E940C028C2F0E9419026AE0CB
S113066070E080E090E00E94AF02F0CF613009F4C6
S11306706FEF823061F018F4813031F011C08330B3
S113068049F0843051F00CC06ABB80E0089567BB28
S113069080E0089564BB80E0089561BB80E0089524
S11306A081E00895683008F07FC0423008F07EC0D1
S11306B0823031F118F4813039F07AC08330E1F1BD
S11306C0843009F455C074C041110DC09AB321E0BF
S11306D030E002C0220F331F6A95E2F7822F809523
S11306E089238ABB0AC02AB381E090E002C0880F44
S11306F0991F6A95E2F7822B8ABB8ABB80E0089532
S113070041110DC097B321E030E002C0220F331F26
S11307106A95E2F7822F8095892387BB0AC027B3A5
S113072081E090E002C0880F991F6A95E2F7822B5E
S113073087BB87BB80E0089541110DC094B321E0CD
S113074030E002C0220F331F6A95E2F7822F8095B2
S1130750892384BB0AC024B381E090E002C0880FDF
S1130760991F6A95E2F7822B84BB84BB80E00895CD
S113077041110DC091B321E030E002C0220F331FBC
S11307806A95E2F7822F8095892381BB0AC021B341
S113079081E090E002C0880F991F6A95E2F7822BEE
S11307A081BB81BB80E0089582E0089583E00895D1
S11307B081E00895683008F07BC0423008F07AC0C8
S11307C0823029F118F4813039F076C08330D1F1C8
S11307D0843009F452C070C041110DC02BB381E0C4
S11307E090E002C0880F991F6A95E2F780958223F2
S11307F08BBB80E008952BB381E090E002C0880FAA
S1130800991F6A95E2F7822B8BBB80E00895411112
S11308100DC028B381E090E002C0880F991F6A954B
S1130820E2F78095822388BB80E0089528B381E0B5
S113083090E002C0880F991F6A95E2F7822B88BB6B
S113084080E0089541110DC025B381E090E002C01D
S1130850880F991F6A95E2F78095822385BB80E013
S1130860089525B381E090E002C0880F991F6A952E
S1130870E2F7822B85BB80E0089541110DC022B3BD
S113088081E090E002C0880F991F6A95E2F7809595
S1130890822382BB80E0089522B381E090E002C00D
S11308A0880F991F6A95E2F7822B82BB80E0089536
S11308B082E0089583E0089581E00895683078F532
S11308C0823091F018F4813031F02BC08330A9F0DC
S11308D08430E1F026C089B390E002C095958795F5
S11308E06A95E2F78170089586B390E002C0959509
S11308F087956A95E2F78170089583B390E002C00A
S1130900959587956A95E2F78170089580B390E094
S113091002C0959587956A95E2F78170089583E002
S1130920089582E00895423008F07BC0683008F0F2
S11309307AC0823029F118F4813039F076C08330DE
S1130940D1F1843009F452C070C041110DC02BB3F1
S113095081E090E002C0880F991F6A95E2F78095C4
S113096082238BBB80E008952BB381E090E002C02A
S1130970880F991F6A95E2F7822B8BBB80E008955C
S113098041110DC028B381E090E002C0880F991F87
S11309906A95E2F78095822388BB80E0089528B3A6
S11309A081E090E002C0880F991F6A95E2F7822BDC
S11309B088BB80E0089541110DC025B381E090E02B
S11309C002C0880F991F6A95E2F78095822385BB40
S11309D080E0089525B381E090E002C0880F991F5C
S11309E06A95E2F7822B85BB80E0089541110DC022
S11309F022B381E090E002C0880F991F6A95E2F764
S1130A008095822382BB80E0089522B381E090E048
S1130A1002C0880F991F6A95E2F7822B82BB80E09F
S1130A20089583E0089582E0089581E00895DB014C
S1130A308F939F930E944905BF91AF91A29F800D10
S1130A40911DA39F900DB29F900D11240895A1E2D2
S1130A501A2EAA1BBB1BFD010DC0AA1FBB1FEE1F34
S1130A60FF1FA217B307E407F50720F0A21BB30B7F
S1130A70E40BF50B661F771F881F991F1A9469F7FB
S1130A8060957095809590959B01AC01BD01CF0157
S1130A9008950E949D05A59F900DB49F900DA49F5D
S1130AA0800D911D11240895E894DF93CF93FC01E8
S1130AB0DB010E949D057F936F93E9019A01AC01CC
S1130AC0BF93AF933F932F93DF010E949D0526F4BC
S1130AD06C1B7D0B820B930B9E01EB01FC010E94AE
S1130AE0AC05AF91BF912F913F910E94AC05BE011F
S1130AF0CF01F9012F913F91CF91DF91089597FB99
S1130B0010F8169400080F93083098F00850232F1B
S1130B10342F452F562F672F782F892F902DF4CF00
S1130B200594979587957795679557954795379544
S1130B3027950A95AAF70F910895A29FB001B39F34
S1130B40C001A39F700D811D1124911DB29F700DD2
S1130B50811D1124911D08950E949D05460F571F64
S1110B60C81FD91F08F431960895F894FFCFEA
S1130B6E0302010004050607280F010203410405D0
S1130B7E06420708094323002A44000A1F1F0E04D5
S1130B8E0000040E1515040400000E1F1F1F000E96
S1130B9E000000040E1F0E040000040E1F1B1100A3
S1130BAE0000111B0E040E1B11001F15151F151529
S1130BBE1F000E1D191F0E001F0050726573736502
S10B0BCE6420436861723A00DF
S9030000FC
